{
  "contracts/Lock.sol": {
    "AcademicCredentials": {
      "abi": [
        {
          "inputs": [],
          "stateMutability": "nonpayable",
          "type": "constructor"
        },
        {
          "anonymous": false,
          "inputs": [
            {
              "indexed": true,
              "internalType": "uint256",
              "name": "credentialId",
              "type": "uint256"
            },
            {
              "indexed": false,
              "internalType": "string",
              "name": "studentName",
              "type": "string"
            },
            {
              "indexed": true,
              "internalType": "address",
              "name": "issuingInstitution",
              "type": "address"
            }
          ],
          "name": "CredentialIssued",
          "type": "event"
        },
        {
          "anonymous": false,
          "inputs": [
            {
              "indexed": true,
              "internalType": "uint256",
              "name": "credentialId",
              "type": "uint256"
            }
          ],
          "name": "CredentialRevoked",
          "type": "event"
        },
        {
          "anonymous": false,
          "inputs": [
            {
              "indexed": true,
              "internalType": "address",
              "name": "institutionAddress",
              "type": "address"
            },
            {
              "indexed": false,
              "internalType": "string",
              "name": "name",
              "type": "string"
            }
          ],
          "name": "InstitutionAdded",
          "type": "event"
        },
        {
          "anonymous": false,
          "inputs": [
            {
              "indexed": true,
              "internalType": "address",
              "name": "institutionAddress",
              "type": "address"
            }
          ],
          "name": "InstitutionDeactivated",
          "type": "event"
        },
        {
          "anonymous": false,
          "inputs": [
            {
              "indexed": true,
              "internalType": "address",
              "name": "previousOwner",
              "type": "address"
            },
            {
              "indexed": true,
              "internalType": "address",
              "name": "newOwner",
              "type": "address"
            }
          ],
          "name": "OwnershipTransferred",
          "type": "event"
        },
        {
          "inputs": [
            {
              "internalType": "address",
              "name": "institutionAddress",
              "type": "address"
            },
            {
              "internalType": "string",
              "name": "name",
              "type": "string"
            }
          ],
          "name": "addInstitution",
          "outputs": [],
          "stateMutability": "nonpayable",
          "type": "function"
        },
        {
          "inputs": [
            {
              "internalType": "uint256",
              "name": "",
              "type": "uint256"
            }
          ],
          "name": "credentials",
          "outputs": [
            {
              "internalType": "uint256",
              "name": "id",
              "type": "uint256"
            },
            {
              "internalType": "string",
              "name": "studentName",
              "type": "string"
            },
            {
              "internalType": "string",
              "name": "courseName",
              "type": "string"
            },
            {
              "internalType": "string",
              "name": "credentialHash",
              "type": "string"
            },
            {
              "internalType": "uint256",
              "name": "issueDate",
              "type": "uint256"
            },
            {
              "internalType": "address",
              "name": "issuingInstitution",
              "type": "address"
            },
            {
              "internalType": "bool",
              "name": "isValid",
              "type": "bool"
            }
          ],
          "stateMutability": "view",
          "type": "function"
        },
        {
          "inputs": [
            {
              "internalType": "address",
              "name": "institutionAddress",
              "type": "address"
            }
          ],
          "name": "deactivateInstitution",
          "outputs": [],
          "stateMutability": "nonpayable",
          "type": "function"
        },
        {
          "inputs": [
            {
              "internalType": "uint256",
              "name": "credentialId",
              "type": "uint256"
            }
          ],
          "name": "getCredential",
          "outputs": [
            {
              "components": [
                {
                  "internalType": "uint256",
                  "name": "id",
                  "type": "uint256"
                },
                {
                  "internalType": "string",
                  "name": "studentName",
                  "type": "string"
                },
                {
                  "internalType": "string",
                  "name": "courseName",
                  "type": "string"
                },
                {
                  "internalType": "string",
                  "name": "credentialHash",
                  "type": "string"
                },
                {
                  "internalType": "uint256",
                  "name": "issueDate",
                  "type": "uint256"
                },
                {
                  "internalType": "address",
                  "name": "issuingInstitution",
                  "type": "address"
                },
                {
                  "internalType": "bool",
                  "name": "isValid",
                  "type": "bool"
                }
              ],
              "internalType": "struct AcademicCredentials.Credential",
              "name": "",
              "type": "tuple"
            }
          ],
          "stateMutability": "view",
          "type": "function"
        },
        {
          "inputs": [
            {
              "internalType": "address",
              "name": "",
              "type": "address"
            }
          ],
          "name": "institutions",
          "outputs": [
            {
              "internalType": "string",
              "name": "name",
              "type": "string"
            },
            {
              "internalType": "address",
              "name": "institutionAddress",
              "type": "address"
            },
            {
              "internalType": "bool",
              "name": "isActive",
              "type": "bool"
            }
          ],
          "stateMutability": "view",
          "type": "function"
        },
        {
          "inputs": [
            {
              "internalType": "string",
              "name": "studentName",
              "type": "string"
            },
            {
              "internalType": "string",
              "name": "courseName",
              "type": "string"
            },
            {
              "internalType": "string",
              "name": "credentialHash",
              "type": "string"
            }
          ],
          "name": "issueCredential",
          "outputs": [
            {
              "internalType": "uint256",
              "name": "",
              "type": "uint256"
            }
          ],
          "stateMutability": "nonpayable",
          "type": "function"
        },
        {
          "inputs": [],
          "name": "owner",
          "outputs": [
            {
              "internalType": "address",
              "name": "",
              "type": "address"
            }
          ],
          "stateMutability": "view",
          "type": "function"
        },
        {
          "inputs": [],
          "name": "renounceOwnership",
          "outputs": [],
          "stateMutability": "nonpayable",
          "type": "function"
        },
        {
          "inputs": [
            {
              "internalType": "uint256",
              "name": "credentialId",
              "type": "uint256"
            }
          ],
          "name": "revokeCredential",
          "outputs": [],
          "stateMutability": "nonpayable",
          "type": "function"
        },
        {
          "inputs": [
            {
              "internalType": "address",
              "name": "newOwner",
              "type": "address"
            }
          ],
          "name": "transferOwnership",
          "outputs": [],
          "stateMutability": "nonpayable",
          "type": "function"
        },
        {
          "inputs": [
            {
              "internalType": "string",
              "name": "",
              "type": "string"
            }
          ],
          "name": "usedHashes",
          "outputs": [
            {
              "internalType": "bool",
              "name": "",
              "type": "bool"
            }
          ],
          "stateMutability": "view",
          "type": "function"
        },
        {
          "inputs": [
            {
              "internalType": "uint256",
              "name": "credentialId",
              "type": "uint256"
            },
            {
              "internalType": "string",
              "name": "credentialHash",
              "type": "string"
            }
          ],
          "name": "verifyCredential",
          "outputs": [
            {
              "internalType": "bool",
              "name": "",
              "type": "bool"
            }
          ],
          "stateMutability": "view",
          "type": "function"
        }
      ],
      "evm": {
        "bytecode": {
          "linkReferences": {},
          "object": "608060405234801561001057600080fd5b5061001a3361001f565b61006f565b600080546001600160a01b038381166001600160a01b0319831681178455604051919092169283917f8be0079c531659141344cd1fd0a4f28419497f9722a3daafe3b4186f6b6457e09190a35050565b6115408061007e6000396000f3fe608060405234801561001057600080fd5b50600436106100b45760003560e01c80638dd18d2d116100715780638dd18d2d1461014d578063b2d9767f1461016d578063bd1f5f311461018f578063c6bd734e146101bd578063e0574e3f146101d0578063f2fde38b146101f657600080fd5b806317e1bfb7146100b95780631b87278d146100ce578063715018a6146100e1578063896da1f7146100e95780638b1afa80146101115780638da5cb5b14610132575b600080fd5b6100cc6100c7366004611096565b610209565b005b6100cc6100dc3660046110e4565b61033e565b6100cc610461565b6100fc6100f73660046110fd565b610475565b60405190151581526020015b60405180910390f35b61012461011f36600461112e565b6106ab565b604051908152602001610108565b6000546040516001600160a01b039091168152602001610108565b61016061015b3660046110e4565b6108f0565b6040516101089190611206565b61018061017b36600461129e565b610b4f565b604051610108939291906112c0565b6100fc61019d3660046112f3565b805160208183018101805160048252928201919093012091525460ff1681565b6100cc6101cb36600461129e565b610c09565b6101e36101de3660046110e4565b610cd2565b6040516101089796959493929190611328565b6100cc61020436600461129e565b610eb4565b610211610f2d565b6001600160a01b038216600090815260026020526040902060010154600160a01b900460ff16156102895760405162461bcd60e51b815260206004820152601a60248201527f496e737469747574696f6e20616c72656164792065786973747300000000000060448201526064015b60405180910390fd5b604080516060810182528281526001600160a01b038416602080830182905260018385015260009182526002905291909120815181906102c9908261141b565b506020820151600190910180546040938401511515600160a01b026001600160a81b03199091166001600160a01b03938416171790559051908316907f53c8ba766789150b95d79fcf2e244a0f2638aaa6814f679f574a4bfe44ba8df4906103329084906114db565b60405180910390a25050565b6000818152600360205260409020600501546001600160a01b031633146103b35760405162461bcd60e51b815260206004820152602360248201527f4f6e6c792069737375696e6720696e737469747574696f6e2063616e207265766044820152626f6b6560e81b6064820152608401610280565b600081815260036020526040902060050154600160a01b900460ff1661041b5760405162461bcd60e51b815260206004820152601a60248201527f43726564656e7469616c20616c7265616479207265766f6b65640000000000006044820152606401610280565b600081815260036020526040808220600501805460ff60a01b191690555182917f0d47d5695004d2a4180ebb40037756439184993a0d1c6d4a8ff3a6aa9325607491a250565b610469610f2d565b6104736000610f87565b565b6000828152600360209081526040808320815160e08101909252805482526001810180548594840191906104a890611392565b80601f01602080910402602001604051908101604052809291908181526020018280546104d490611392565b80156105215780601f106104f657610100808354040283529160200191610521565b820191906000526020600020905b81548152906001019060200180831161050457829003601f168201915b5050505050815260200160028201805461053a90611392565b80601f016020809104026020016040519081016040528092919081815260200182805461056690611392565b80156105b35780601f10610588576101008083540402835291602001916105b3565b820191906000526020600020905b81548152906001019060200180831161059657829003601f168201915b505050505081526020016003820180546105cc90611392565b80601f01602080910402602001604051908101604052809291908181526020018280546105f890611392565b80156106455780601f1061061a57610100808354040283529160200191610645565b820191906000526020600020905b81548152906001019060200180831161062857829003601f168201915b5050509183525050600482015460208201526005909101546001600160a01b0381166040830152600160a01b900460ff16151560609091015260c081015190915080156106a357508280519060200120816060015180519060200120145b949350505050565b33600090815260026020526040812060010154600160a01b900460ff166107205760405162461bcd60e51b815260206004820152602360248201527f43616c6c6572206973206e6f7420616e2061637469766520696e73746974757460448201526234b7b760e91b6064820152608401610280565b60048260405161073091906114ee565b9081526040519081900360200190205460ff16156107905760405162461bcd60e51b815260206004820152601e60248201527f43726564656e7469616c206861736820616c72656164792065786973747300006044820152606401610280565b61079e600180546001019055565b60006107a960015490565b6040805160e0810182528281526020808201898152828401899052606083018890524260808401523360a0840152600160c08401819052600086815260039093529390912082518155905193945090929091820190610808908261141b565b506040820151600282019061081d908261141b565b5060608201516003820190610832908261141b565b50608082015160048083019190915560a08301516005909201805460c0909401511515600160a01b026001600160a81b03199094166001600160a01b03909316929092179290921790556040516001919061088e9086906114ee565b908152604051908190036020018120805492151560ff1990931692909217909155339082907fadab51a15683c314952b354bdae352670d40a5e82918a5a134ae5b728c71e088906108e09089906114db565b60405180910390a3949350505050565b61093b6040518060e00160405280600081526020016060815260200160608152602001606081526020016000815260200160006001600160a01b031681526020016000151581525090565b600360008381526020019081526020016000206040518060e00160405290816000820154815260200160018201805461097390611392565b80601f016020809104026020016040519081016040528092919081815260200182805461099f90611392565b80156109ec5780601f106109c1576101008083540402835291602001916109ec565b820191906000526020600020905b8154815290600101906020018083116109cf57829003601f168201915b50505050508152602001600282018054610a0590611392565b80601f0160208091040260200160405190810160405280929190818152602001828054610a3190611392565b8015610a7e5780601f10610a5357610100808354040283529160200191610a7e565b820191906000526020600020905b815481529060010190602001808311610a6157829003601f168201915b50505050508152602001600382018054610a9790611392565b80601f0160208091040260200160405190810160405280929190818152602001828054610ac390611392565b8015610b105780601f10610ae557610100808354040283529160200191610b10565b820191906000526020600020905b815481529060010190602001808311610af357829003601f168201915b5050509183525050600482015460208201526005909101546001600160a01b0381166040830152600160a01b900460ff16151560609091015292915050565b600260205260009081526040902080548190610b6a90611392565b80601f0160208091040260200160405190810160405280929190818152602001828054610b9690611392565b8015610be35780601f10610bb857610100808354040283529160200191610be3565b820191906000526020600020905b815481529060010190602001808311610bc657829003601f168201915b505050600190930154919250506001600160a01b0381169060ff600160a01b9091041683565b610c11610f2d565b6001600160a01b038116600090815260026020526040902060010154600160a01b900460ff16610c835760405162461bcd60e51b815260206004820152601960248201527f496e737469747574696f6e206973206e6f7420616374697665000000000000006044820152606401610280565b6001600160a01b038116600081815260026020526040808220600101805460ff60a01b19169055517f805426965bf84411d1252c51430c8a578c088f2ee694e93ac6ac88104fb1dae49190a250565b60036020526000908152604090208054600182018054919291610cf490611392565b80601f0160208091040260200160405190810160405280929190818152602001828054610d2090611392565b8015610d6d5780601f10610d4257610100808354040283529160200191610d6d565b820191906000526020600020905b815481529060010190602001808311610d5057829003601f168201915b505050505090806002018054610d8290611392565b80601f0160208091040260200160405190810160405280929190818152602001828054610dae90611392565b8015610dfb5780601f10610dd057610100808354040283529160200191610dfb565b820191906000526020600020905b815481529060010190602001808311610dde57829003601f168201915b505050505090806003018054610e1090611392565b80601f0160208091040260200160405190810160405280929190818152602001828054610e3c90611392565b8015610e895780601f10610e5e57610100808354040283529160200191610e89565b820191906000526020600020905b815481529060010190602001808311610e6c57829003601f168201915b5050505060048301546005909301549192916001600160a01b0381169150600160a01b900460ff1687565b610ebc610f2d565b6001600160a01b038116610f215760405162461bcd60e51b815260206004820152602660248201527f4f776e61626c653a206e6577206f776e657220697320746865207a65726f206160448201526564647265737360d01b6064820152608401610280565b610f2a81610f87565b50565b6000546001600160a01b031633146104735760405162461bcd60e51b815260206004820181905260248201527f4f776e61626c653a2063616c6c6572206973206e6f7420746865206f776e65726044820152606401610280565b600080546001600160a01b038381166001600160a01b0319831681178455604051919092169283917f8be0079c531659141344cd1fd0a4f28419497f9722a3daafe3b4186f6b6457e09190a35050565b80356001600160a01b0381168114610fee57600080fd5b919050565b634e487b7160e01b600052604160045260246000fd5b600082601f83011261101a57600080fd5b813567ffffffffffffffff8082111561103557611035610ff3565b604051601f8301601f19908116603f0116810190828211818310171561105d5761105d610ff3565b8160405283815286602085880101111561107657600080fd5b836020870160208301376000602085830101528094505050505092915050565b600080604083850312156110a957600080fd5b6110b283610fd7565b9150602083013567ffffffffffffffff8111156110ce57600080fd5b6110da85828601611009565b9150509250929050565b6000602082840312156110f657600080fd5b5035919050565b6000806040838503121561111057600080fd5b82359150602083013567ffffffffffffffff8111156110ce57600080fd5b60008060006060848603121561114357600080fd5b833567ffffffffffffffff8082111561115b57600080fd5b61116787838801611009565b9450602086013591508082111561117d57600080fd5b61118987838801611009565b9350604086013591508082111561119f57600080fd5b506111ac86828701611009565b9150509250925092565b60005b838110156111d15781810151838201526020016111b9565b50506000910152565b600081518084526111f28160208601602086016111b6565b601f01601f19169290920160200192915050565b60208152815160208201526000602083015160e0604084015261122d6101008401826111da565b90506040840151601f198085840301606086015261124b83836111da565b925060608601519150808584030160808601525061126982826111da565b915050608084015160a084015260018060a01b0360a08501511660c084015260c0840151151560e08401528091505092915050565b6000602082840312156112b057600080fd5b6112b982610fd7565b9392505050565b6060815260006112d360608301866111da565b6001600160a01b0394909416602083015250901515604090910152919050565b60006020828403121561130557600080fd5b813567ffffffffffffffff81111561131c57600080fd5b6106a384828501611009565b87815260e06020820152600061134160e08301896111da565b828103604084015261135381896111da565b9050828103606084015261136781886111da565b608084019690965250506001600160a01b039290921660a0830152151560c090910152949350505050565b600181811c908216806113a657607f821691505b6020821081036113c657634e487b7160e01b600052602260045260246000fd5b50919050565b601f82111561141657600081815260208120601f850160051c810160208610156113f35750805b601f850160051c820191505b81811015611412578281556001016113ff565b5050505b505050565b815167ffffffffffffffff81111561143557611435610ff3565b611449816114438454611392565b846113cc565b602080601f83116001811461147e57600084156114665750858301515b600019600386901b1c1916600185901b178555611412565b600085815260208120601f198616915b828110156114ad5788860151825594840194600190910190840161148e565b50858210156114cb5787850151600019600388901b60f8161c191681555b5050505050600190811b01905550565b6020815260006112b960208301846111da565b600082516115008184602087016111b6565b919091019291505056fea2646970667358221220bacbfe59c7558d89074ec6f4aba3cbc149085f533686797401ffa0e7187be94564736f6c63430008140033",
          "opcodes": "PUSH1 0x80 PUSH1 0x40 MSTORE CALLVALUE DUP1 ISZERO PUSH2 0x10 JUMPI PUSH1 0x0 DUP1 REVERT JUMPDEST POP PUSH2 0x1A CALLER PUSH2 0x1F JUMP JUMPDEST PUSH2 0x6F JUMP JUMPDEST PUSH1 0x0 DUP1 SLOAD PUSH1 0x1 PUSH1 0x1 PUSH1 0xA0 SHL SUB DUP4 DUP2 AND PUSH1 0x1 PUSH1 0x1 PUSH1 0xA0 SHL SUB NOT DUP4 AND DUP2 OR DUP5 SSTORE PUSH1 0x40 MLOAD SWAP2 SWAP1 SWAP3 AND SWAP3 DUP4 SWAP2 PUSH32 0x8BE0079C531659141344CD1FD0A4F28419497F9722A3DAAFE3B4186F6B6457E0 SWAP2 SWAP1 LOG3 POP POP JUMP JUMPDEST PUSH2 0x1540 DUP1 PUSH2 0x7E PUSH1 0x0 CODECOPY PUSH1 0x0 RETURN INVALID PUSH1 0x80 PUSH1 0x40 MSTORE CALLVALUE DUP1 ISZERO PUSH2 0x10 JUMPI PUSH1 0x0 DUP1 REVERT JUMPDEST POP PUSH1 0x4 CALLDATASIZE LT PUSH2 0xB4 JUMPI PUSH1 0x0 CALLDATALOAD PUSH1 0xE0 SHR DUP1 PUSH4 0x8DD18D2D GT PUSH2 0x71 JUMPI DUP1 PUSH4 0x8DD18D2D EQ PUSH2 0x14D JUMPI DUP1 PUSH4 0xB2D9767F EQ PUSH2 0x16D JUMPI DUP1 PUSH4 0xBD1F5F31 EQ PUSH2 0x18F JUMPI DUP1 PUSH4 0xC6BD734E EQ PUSH2 0x1BD JUMPI DUP1 PUSH4 0xE0574E3F EQ PUSH2 0x1D0 JUMPI DUP1 PUSH4 0xF2FDE38B EQ PUSH2 0x1F6 JUMPI PUSH1 0x0 DUP1 REVERT JUMPDEST DUP1 PUSH4 0x17E1BFB7 EQ PUSH2 0xB9 JUMPI DUP1 PUSH4 0x1B87278D EQ PUSH2 0xCE JUMPI DUP1 PUSH4 0x715018A6 EQ PUSH2 0xE1 JUMPI DUP1 PUSH4 0x896DA1F7 EQ PUSH2 0xE9 JUMPI DUP1 PUSH4 0x8B1AFA80 EQ PUSH2 0x111 JUMPI DUP1 PUSH4 0x8DA5CB5B EQ PUSH2 0x132 JUMPI JUMPDEST PUSH1 0x0 DUP1 REVERT JUMPDEST PUSH2 0xCC PUSH2 0xC7 CALLDATASIZE PUSH1 0x4 PUSH2 0x1096 JUMP JUMPDEST PUSH2 0x209 JUMP JUMPDEST STOP JUMPDEST PUSH2 0xCC PUSH2 0xDC CALLDATASIZE PUSH1 0x4 PUSH2 0x10E4 JUMP JUMPDEST PUSH2 0x33E JUMP JUMPDEST PUSH2 0xCC PUSH2 0x461 JUMP JUMPDEST PUSH2 0xFC PUSH2 0xF7 CALLDATASIZE PUSH1 0x4 PUSH2 0x10FD JUMP JUMPDEST PUSH2 0x475 JUMP JUMPDEST PUSH1 0x40 MLOAD SWAP1 ISZERO ISZERO DUP2 MSTORE PUSH1 0x20 ADD JUMPDEST PUSH1 0x40 MLOAD DUP1 SWAP2 SUB SWAP1 RETURN JUMPDEST PUSH2 0x124 PUSH2 0x11F CALLDATASIZE PUSH1 0x4 PUSH2 0x112E JUMP JUMPDEST PUSH2 0x6AB JUMP JUMPDEST PUSH1 0x40 MLOAD SWAP1 DUP2 MSTORE PUSH1 0x20 ADD PUSH2 0x108 JUMP JUMPDEST PUSH1 0x0 SLOAD PUSH1 0x40 MLOAD PUSH1 0x1 PUSH1 0x1 PUSH1 0xA0 SHL SUB SWAP1 SWAP2 AND DUP2 MSTORE PUSH1 0x20 ADD PUSH2 0x108 JUMP JUMPDEST PUSH2 0x160 PUSH2 0x15B CALLDATASIZE PUSH1 0x4 PUSH2 0x10E4 JUMP JUMPDEST PUSH2 0x8F0 JUMP JUMPDEST PUSH1 0x40 MLOAD PUSH2 0x108 SWAP2 SWAP1 PUSH2 0x1206 JUMP JUMPDEST PUSH2 0x180 PUSH2 0x17B CALLDATASIZE PUSH1 0x4 PUSH2 0x129E JUMP JUMPDEST PUSH2 0xB4F JUMP JUMPDEST PUSH1 0x40 MLOAD PUSH2 0x108 SWAP4 SWAP3 SWAP2 SWAP1 PUSH2 0x12C0 JUMP JUMPDEST PUSH2 0xFC PUSH2 0x19D CALLDATASIZE PUSH1 0x4 PUSH2 0x12F3 JUMP JUMPDEST DUP1 MLOAD PUSH1 0x20 DUP2 DUP4 ADD DUP2 ADD DUP1 MLOAD PUSH1 0x4 DUP3 MSTORE SWAP3 DUP3 ADD SWAP2 SWAP1 SWAP4 ADD KECCAK256 SWAP2 MSTORE SLOAD PUSH1 0xFF AND DUP2 JUMP JUMPDEST PUSH2 0xCC PUSH2 0x1CB CALLDATASIZE PUSH1 0x4 PUSH2 0x129E JUMP JUMPDEST PUSH2 0xC09 JUMP JUMPDEST PUSH2 0x1E3 PUSH2 0x1DE CALLDATASIZE PUSH1 0x4 PUSH2 0x10E4 JUMP JUMPDEST PUSH2 0xCD2 JUMP JUMPDEST PUSH1 0x40 MLOAD PUSH2 0x108 SWAP8 SWAP7 SWAP6 SWAP5 SWAP4 SWAP3 SWAP2 SWAP1 PUSH2 0x1328 JUMP JUMPDEST PUSH2 0xCC PUSH2 0x204 CALLDATASIZE PUSH1 0x4 PUSH2 0x129E JUMP JUMPDEST PUSH2 0xEB4 JUMP JUMPDEST PUSH2 0x211 PUSH2 0xF2D JUMP JUMPDEST PUSH1 0x1 PUSH1 0x1 PUSH1 0xA0 SHL SUB DUP3 AND PUSH1 0x0 SWAP1 DUP2 MSTORE PUSH1 0x2 PUSH1 0x20 MSTORE PUSH1 0x40 SWAP1 KECCAK256 PUSH1 0x1 ADD SLOAD PUSH1 0x1 PUSH1 0xA0 SHL SWAP1 DIV PUSH1 0xFF AND ISZERO PUSH2 0x289 JUMPI PUSH1 0x40 MLOAD PUSH3 0x461BCD PUSH1 0xE5 SHL DUP2 MSTORE PUSH1 0x20 PUSH1 0x4 DUP3 ADD MSTORE PUSH1 0x1A PUSH1 0x24 DUP3 ADD MSTORE PUSH32 0x496E737469747574696F6E20616C726561647920657869737473000000000000 PUSH1 0x44 DUP3 ADD MSTORE PUSH1 0x64 ADD JUMPDEST PUSH1 0x40 MLOAD DUP1 SWAP2 SUB SWAP1 REVERT JUMPDEST PUSH1 0x40 DUP1 MLOAD PUSH1 0x60 DUP2 ADD DUP3 MSTORE DUP3 DUP2 MSTORE PUSH1 0x1 PUSH1 0x1 PUSH1 0xA0 SHL SUB DUP5 AND PUSH1 0x20 DUP1 DUP4 ADD DUP3 SWAP1 MSTORE PUSH1 0x1 DUP4 DUP6 ADD MSTORE PUSH1 0x0 SWAP2 DUP3 MSTORE PUSH1 0x2 SWAP1 MSTORE SWAP2 SWAP1 SWAP2 KECCAK256 DUP2 MLOAD DUP2 SWAP1 PUSH2 0x2C9 SWAP1 DUP3 PUSH2 0x141B JUMP JUMPDEST POP PUSH1 0x20 DUP3 ADD MLOAD PUSH1 0x1 SWAP1 SWAP2 ADD DUP1 SLOAD PUSH1 0x40 SWAP4 DUP5 ADD MLOAD ISZERO ISZERO PUSH1 0x1 PUSH1 0xA0 SHL MUL PUSH1 0x1 PUSH1 0x1 PUSH1 0xA8 SHL SUB NOT SWAP1 SWAP2 AND PUSH1 0x1 PUSH1 0x1 PUSH1 0xA0 SHL SUB SWAP4 DUP5 AND OR OR SWAP1 SSTORE SWAP1 MLOAD SWAP1 DUP4 AND SWAP1 PUSH32 0x53C8BA766789150B95D79FCF2E244A0F2638AAA6814F679F574A4BFE44BA8DF4 SWAP1 PUSH2 0x332 SWAP1 DUP5 SWAP1 PUSH2 0x14DB JUMP JUMPDEST PUSH1 0x40 MLOAD DUP1 SWAP2 SUB SWAP1 LOG2 POP POP JUMP JUMPDEST PUSH1 0x0 DUP2 DUP2 MSTORE PUSH1 0x3 PUSH1 0x20 MSTORE PUSH1 0x40 SWAP1 KECCAK256 PUSH1 0x5 ADD SLOAD PUSH1 0x1 PUSH1 0x1 PUSH1 0xA0 SHL SUB AND CALLER EQ PUSH2 0x3B3 JUMPI PUSH1 0x40 MLOAD PUSH3 0x461BCD PUSH1 0xE5 SHL DUP2 MSTORE PUSH1 0x20 PUSH1 0x4 DUP3 ADD MSTORE PUSH1 0x23 PUSH1 0x24 DUP3 ADD MSTORE PUSH32 0x4F6E6C792069737375696E6720696E737469747574696F6E2063616E20726576 PUSH1 0x44 DUP3 ADD MSTORE PUSH3 0x6F6B65 PUSH1 0xE8 SHL PUSH1 0x64 DUP3 ADD MSTORE PUSH1 0x84 ADD PUSH2 0x280 JUMP JUMPDEST PUSH1 0x0 DUP2 DUP2 MSTORE PUSH1 0x3 PUSH1 0x20 MSTORE PUSH1 0x40 SWAP1 KECCAK256 PUSH1 0x5 ADD SLOAD PUSH1 0x1 PUSH1 0xA0 SHL SWAP1 DIV PUSH1 0xFF AND PUSH2 0x41B JUMPI PUSH1 0x40 MLOAD PUSH3 0x461BCD PUSH1 0xE5 SHL DUP2 MSTORE PUSH1 0x20 PUSH1 0x4 DUP3 ADD MSTORE PUSH1 0x1A PUSH1 0x24 DUP3 ADD MSTORE PUSH32 0x43726564656E7469616C20616C7265616479207265766F6B6564000000000000 PUSH1 0x44 DUP3 ADD MSTORE PUSH1 0x64 ADD PUSH2 0x280 JUMP JUMPDEST PUSH1 0x0 DUP2 DUP2 MSTORE PUSH1 0x3 PUSH1 0x20 MSTORE PUSH1 0x40 DUP1 DUP3 KECCAK256 PUSH1 0x5 ADD DUP1 SLOAD PUSH1 0xFF PUSH1 0xA0 SHL NOT AND SWAP1 SSTORE MLOAD DUP3 SWAP2 PUSH32 0xD47D5695004D2A4180EBB40037756439184993A0D1C6D4A8FF3A6AA93256074 SWAP2 LOG2 POP JUMP JUMPDEST PUSH2 0x469 PUSH2 0xF2D JUMP JUMPDEST PUSH2 0x473 PUSH1 0x0 PUSH2 0xF87 JUMP JUMPDEST JUMP JUMPDEST PUSH1 0x0 DUP3 DUP2 MSTORE PUSH1 0x3 PUSH1 0x20 SWAP1 DUP2 MSTORE PUSH1 0x40 DUP1 DUP4 KECCAK256 DUP2 MLOAD PUSH1 0xE0 DUP2 ADD SWAP1 SWAP3 MSTORE DUP1 SLOAD DUP3 MSTORE PUSH1 0x1 DUP2 ADD DUP1 SLOAD DUP6 SWAP5 DUP5 ADD SWAP2 SWAP1 PUSH2 0x4A8 SWAP1 PUSH2 0x1392 JUMP JUMPDEST DUP1 PUSH1 0x1F ADD PUSH1 0x20 DUP1 SWAP2 DIV MUL PUSH1 0x20 ADD PUSH1 0x40 MLOAD SWAP1 DUP2 ADD PUSH1 0x40 MSTORE DUP1 SWAP3 SWAP2 SWAP1 DUP2 DUP2 MSTORE PUSH1 0x20 ADD DUP3 DUP1 SLOAD PUSH2 0x4D4 SWAP1 PUSH2 0x1392 JUMP JUMPDEST DUP1 ISZERO PUSH2 0x521 JUMPI DUP1 PUSH1 0x1F LT PUSH2 0x4F6 JUMPI PUSH2 0x100 DUP1 DUP4 SLOAD DIV MUL DUP4 MSTORE SWAP2 PUSH1 0x20 ADD SWAP2 PUSH2 0x521 JUMP JUMPDEST DUP3 ADD SWAP2 SWAP1 PUSH1 0x0 MSTORE PUSH1 0x20 PUSH1 0x0 KECCAK256 SWAP1 JUMPDEST DUP2 SLOAD DUP2 MSTORE SWAP1 PUSH1 0x1 ADD SWAP1 PUSH1 0x20 ADD DUP1 DUP4 GT PUSH2 0x504 JUMPI DUP3 SWAP1 SUB PUSH1 0x1F AND DUP3 ADD SWAP2 JUMPDEST POP POP POP POP POP DUP2 MSTORE PUSH1 0x20 ADD PUSH1 0x2 DUP3 ADD DUP1 SLOAD PUSH2 0x53A SWAP1 PUSH2 0x1392 JUMP JUMPDEST DUP1 PUSH1 0x1F ADD PUSH1 0x20 DUP1 SWAP2 DIV MUL PUSH1 0x20 ADD PUSH1 0x40 MLOAD SWAP1 DUP2 ADD PUSH1 0x40 MSTORE DUP1 SWAP3 SWAP2 SWAP1 DUP2 DUP2 MSTORE PUSH1 0x20 ADD DUP3 DUP1 SLOAD PUSH2 0x566 SWAP1 PUSH2 0x1392 JUMP JUMPDEST DUP1 ISZERO PUSH2 0x5B3 JUMPI DUP1 PUSH1 0x1F LT PUSH2 0x588 JUMPI PUSH2 0x100 DUP1 DUP4 SLOAD DIV MUL DUP4 MSTORE SWAP2 PUSH1 0x20 ADD SWAP2 PUSH2 0x5B3 JUMP JUMPDEST DUP3 ADD SWAP2 SWAP1 PUSH1 0x0 MSTORE PUSH1 0x20 PUSH1 0x0 KECCAK256 SWAP1 JUMPDEST DUP2 SLOAD DUP2 MSTORE SWAP1 PUSH1 0x1 ADD SWAP1 PUSH1 0x20 ADD DUP1 DUP4 GT PUSH2 0x596 JUMPI DUP3 SWAP1 SUB PUSH1 0x1F AND DUP3 ADD SWAP2 JUMPDEST POP POP POP POP POP DUP2 MSTORE PUSH1 0x20 ADD PUSH1 0x3 DUP3 ADD DUP1 SLOAD PUSH2 0x5CC SWAP1 PUSH2 0x1392 JUMP JUMPDEST DUP1 PUSH1 0x1F ADD PUSH1 0x20 DUP1 SWAP2 DIV MUL PUSH1 0x20 ADD PUSH1 0x40 MLOAD SWAP1 DUP2 ADD PUSH1 0x40 MSTORE DUP1 SWAP3 SWAP2 SWAP1 DUP2 DUP2 MSTORE PUSH1 0x20 ADD DUP3 DUP1 SLOAD PUSH2 0x5F8 SWAP1 PUSH2 0x1392 JUMP JUMPDEST DUP1 ISZERO PUSH2 0x645 JUMPI DUP1 PUSH1 0x1F LT PUSH2 0x61A JUMPI PUSH2 0x100 DUP1 DUP4 SLOAD DIV MUL DUP4 MSTORE SWAP2 PUSH1 0x20 ADD SWAP2 PUSH2 0x645 JUMP JUMPDEST DUP3 ADD SWAP2 SWAP1 PUSH1 0x0 MSTORE PUSH1 0x20 PUSH1 0x0 KECCAK256 SWAP1 JUMPDEST DUP2 SLOAD DUP2 MSTORE SWAP1 PUSH1 0x1 ADD SWAP1 PUSH1 0x20 ADD DUP1 DUP4 GT PUSH2 0x628 JUMPI DUP3 SWAP1 SUB PUSH1 0x1F AND DUP3 ADD SWAP2 JUMPDEST POP POP POP SWAP2 DUP4 MSTORE POP POP PUSH1 0x4 DUP3 ADD SLOAD PUSH1 0x20 DUP3 ADD MSTORE PUSH1 0x5 SWAP1 SWAP2 ADD SLOAD PUSH1 0x1 PUSH1 0x1 PUSH1 0xA0 SHL SUB DUP2 AND PUSH1 0x40 DUP4 ADD MSTORE PUSH1 0x1 PUSH1 0xA0 SHL SWAP1 DIV PUSH1 0xFF AND ISZERO ISZERO PUSH1 0x60 SWAP1 SWAP2 ADD MSTORE PUSH1 0xC0 DUP2 ADD MLOAD SWAP1 SWAP2 POP DUP1 ISZERO PUSH2 0x6A3 JUMPI POP DUP3 DUP1 MLOAD SWAP1 PUSH1 0x20 ADD KECCAK256 DUP2 PUSH1 0x60 ADD MLOAD DUP1 MLOAD SWAP1 PUSH1 0x20 ADD KECCAK256 EQ JUMPDEST SWAP5 SWAP4 POP POP POP POP JUMP JUMPDEST CALLER PUSH1 0x0 SWAP1 DUP2 MSTORE PUSH1 0x2 PUSH1 0x20 MSTORE PUSH1 0x40 DUP2 KECCAK256 PUSH1 0x1 ADD SLOAD PUSH1 0x1 PUSH1 0xA0 SHL SWAP1 DIV PUSH1 0xFF AND PUSH2 0x720 JUMPI PUSH1 0x40 MLOAD PUSH3 0x461BCD PUSH1 0xE5 SHL DUP2 MSTORE PUSH1 0x20 PUSH1 0x4 DUP3 ADD MSTORE PUSH1 0x23 PUSH1 0x24 DUP3 ADD MSTORE PUSH32 0x43616C6C6572206973206E6F7420616E2061637469766520696E737469747574 PUSH1 0x44 DUP3 ADD MSTORE PUSH3 0x34B7B7 PUSH1 0xE9 SHL PUSH1 0x64 DUP3 ADD MSTORE PUSH1 0x84 ADD PUSH2 0x280 JUMP JUMPDEST PUSH1 0x4 DUP3 PUSH1 0x40 MLOAD PUSH2 0x730 SWAP2 SWAP1 PUSH2 0x14EE JUMP JUMPDEST SWAP1 DUP2 MSTORE PUSH1 0x40 MLOAD SWAP1 DUP2 SWAP1 SUB PUSH1 0x20 ADD SWAP1 KECCAK256 SLOAD PUSH1 0xFF AND ISZERO PUSH2 0x790 JUMPI PUSH1 0x40 MLOAD PUSH3 0x461BCD PUSH1 0xE5 SHL DUP2 MSTORE PUSH1 0x20 PUSH1 0x4 DUP3 ADD MSTORE PUSH1 0x1E PUSH1 0x24 DUP3 ADD MSTORE PUSH32 0x43726564656E7469616C206861736820616C7265616479206578697374730000 PUSH1 0x44 DUP3 ADD MSTORE PUSH1 0x64 ADD PUSH2 0x280 JUMP JUMPDEST PUSH2 0x79E PUSH1 0x1 DUP1 SLOAD PUSH1 0x1 ADD SWAP1 SSTORE JUMP JUMPDEST PUSH1 0x0 PUSH2 0x7A9 PUSH1 0x1 SLOAD SWAP1 JUMP JUMPDEST PUSH1 0x40 DUP1 MLOAD PUSH1 0xE0 DUP2 ADD DUP3 MSTORE DUP3 DUP2 MSTORE PUSH1 0x20 DUP1 DUP3 ADD DUP10 DUP2 MSTORE DUP3 DUP5 ADD DUP10 SWAP1 MSTORE PUSH1 0x60 DUP4 ADD DUP9 SWAP1 MSTORE TIMESTAMP PUSH1 0x80 DUP5 ADD MSTORE CALLER PUSH1 0xA0 DUP5 ADD MSTORE PUSH1 0x1 PUSH1 0xC0 DUP5 ADD DUP2 SWAP1 MSTORE PUSH1 0x0 DUP7 DUP2 MSTORE PUSH1 0x3 SWAP1 SWAP4 MSTORE SWAP4 SWAP1 SWAP2 KECCAK256 DUP3 MLOAD DUP2 SSTORE SWAP1 MLOAD SWAP4 SWAP5 POP SWAP1 SWAP3 SWAP1 SWAP2 DUP3 ADD SWAP1 PUSH2 0x808 SWAP1 DUP3 PUSH2 0x141B JUMP JUMPDEST POP PUSH1 0x40 DUP3 ADD MLOAD PUSH1 0x2 DUP3 ADD SWAP1 PUSH2 0x81D SWAP1 DUP3 PUSH2 0x141B JUMP JUMPDEST POP PUSH1 0x60 DUP3 ADD MLOAD PUSH1 0x3 DUP3 ADD SWAP1 PUSH2 0x832 SWAP1 DUP3 PUSH2 0x141B JUMP JUMPDEST POP PUSH1 0x80 DUP3 ADD MLOAD PUSH1 0x4 DUP1 DUP4 ADD SWAP2 SWAP1 SWAP2 SSTORE PUSH1 0xA0 DUP4 ADD MLOAD PUSH1 0x5 SWAP1 SWAP3 ADD DUP1 SLOAD PUSH1 0xC0 SWAP1 SWAP5 ADD MLOAD ISZERO ISZERO PUSH1 0x1 PUSH1 0xA0 SHL MUL PUSH1 0x1 PUSH1 0x1 PUSH1 0xA8 SHL SUB NOT SWAP1 SWAP5 AND PUSH1 0x1 PUSH1 0x1 PUSH1 0xA0 SHL SUB SWAP1 SWAP4 AND SWAP3 SWAP1 SWAP3 OR SWAP3 SWAP1 SWAP3 OR SWAP1 SSTORE PUSH1 0x40 MLOAD PUSH1 0x1 SWAP2 SWAP1 PUSH2 0x88E SWAP1 DUP7 SWAP1 PUSH2 0x14EE JUMP JUMPDEST SWAP1 DUP2 MSTORE PUSH1 0x40 MLOAD SWAP1 DUP2 SWAP1 SUB PUSH1 0x20 ADD DUP2 KECCAK256 DUP1 SLOAD SWAP3 ISZERO ISZERO PUSH1 0xFF NOT SWAP1 SWAP4 AND SWAP3 SWAP1 SWAP3 OR SWAP1 SWAP2 SSTORE CALLER SWAP1 DUP3 SWAP1 PUSH32 0xADAB51A15683C314952B354BDAE352670D40A5E82918A5A134AE5B728C71E088 SWAP1 PUSH2 0x8E0 SWAP1 DUP10 SWAP1 PUSH2 0x14DB JUMP JUMPDEST PUSH1 0x40 MLOAD DUP1 SWAP2 SUB SWAP1 LOG3 SWAP5 SWAP4 POP POP POP POP JUMP JUMPDEST PUSH2 0x93B PUSH1 0x40 MLOAD DUP1 PUSH1 0xE0 ADD PUSH1 0x40 MSTORE DUP1 PUSH1 0x0 DUP2 MSTORE PUSH1 0x20 ADD PUSH1 0x60 DUP2 MSTORE PUSH1 0x20 ADD PUSH1 0x60 DUP2 MSTORE PUSH1 0x20 ADD PUSH1 0x60 DUP2 MSTORE PUSH1 0x20 ADD PUSH1 0x0 DUP2 MSTORE PUSH1 0x20 ADD PUSH1 0x0 PUSH1 0x1 PUSH1 0x1 PUSH1 0xA0 SHL SUB AND DUP2 MSTORE PUSH1 0x20 ADD PUSH1 0x0 ISZERO ISZERO DUP2 MSTORE POP SWAP1 JUMP JUMPDEST PUSH1 0x3 PUSH1 0x0 DUP4 DUP2 MSTORE PUSH1 0x20 ADD SWAP1 DUP2 MSTORE PUSH1 0x20 ADD PUSH1 0x0 KECCAK256 PUSH1 0x40 MLOAD DUP1 PUSH1 0xE0 ADD PUSH1 0x40 MSTORE SWAP1 DUP2 PUSH1 0x0 DUP3 ADD SLOAD DUP2 MSTORE PUSH1 0x20 ADD PUSH1 0x1 DUP3 ADD DUP1 SLOAD PUSH2 0x973 SWAP1 PUSH2 0x1392 JUMP JUMPDEST DUP1 PUSH1 0x1F ADD PUSH1 0x20 DUP1 SWAP2 DIV MUL PUSH1 0x20 ADD PUSH1 0x40 MLOAD SWAP1 DUP2 ADD PUSH1 0x40 MSTORE DUP1 SWAP3 SWAP2 SWAP1 DUP2 DUP2 MSTORE PUSH1 0x20 ADD DUP3 DUP1 SLOAD PUSH2 0x99F SWAP1 PUSH2 0x1392 JUMP JUMPDEST DUP1 ISZERO PUSH2 0x9EC JUMPI DUP1 PUSH1 0x1F LT PUSH2 0x9C1 JUMPI PUSH2 0x100 DUP1 DUP4 SLOAD DIV MUL DUP4 MSTORE SWAP2 PUSH1 0x20 ADD SWAP2 PUSH2 0x9EC JUMP JUMPDEST DUP3 ADD SWAP2 SWAP1 PUSH1 0x0 MSTORE PUSH1 0x20 PUSH1 0x0 KECCAK256 SWAP1 JUMPDEST DUP2 SLOAD DUP2 MSTORE SWAP1 PUSH1 0x1 ADD SWAP1 PUSH1 0x20 ADD DUP1 DUP4 GT PUSH2 0x9CF JUMPI DUP3 SWAP1 SUB PUSH1 0x1F AND DUP3 ADD SWAP2 JUMPDEST POP POP POP POP POP DUP2 MSTORE PUSH1 0x20 ADD PUSH1 0x2 DUP3 ADD DUP1 SLOAD PUSH2 0xA05 SWAP1 PUSH2 0x1392 JUMP JUMPDEST DUP1 PUSH1 0x1F ADD PUSH1 0x20 DUP1 SWAP2 DIV MUL PUSH1 0x20 ADD PUSH1 0x40 MLOAD SWAP1 DUP2 ADD PUSH1 0x40 MSTORE DUP1 SWAP3 SWAP2 SWAP1 DUP2 DUP2 MSTORE PUSH1 0x20 ADD DUP3 DUP1 SLOAD PUSH2 0xA31 SWAP1 PUSH2 0x1392 JUMP JUMPDEST DUP1 ISZERO PUSH2 0xA7E JUMPI DUP1 PUSH1 0x1F LT PUSH2 0xA53 JUMPI PUSH2 0x100 DUP1 DUP4 SLOAD DIV MUL DUP4 MSTORE SWAP2 PUSH1 0x20 ADD SWAP2 PUSH2 0xA7E JUMP JUMPDEST DUP3 ADD SWAP2 SWAP1 PUSH1 0x0 MSTORE PUSH1 0x20 PUSH1 0x0 KECCAK256 SWAP1 JUMPDEST DUP2 SLOAD DUP2 MSTORE SWAP1 PUSH1 0x1 ADD SWAP1 PUSH1 0x20 ADD DUP1 DUP4 GT PUSH2 0xA61 JUMPI DUP3 SWAP1 SUB PUSH1 0x1F AND DUP3 ADD SWAP2 JUMPDEST POP POP POP POP POP DUP2 MSTORE PUSH1 0x20 ADD PUSH1 0x3 DUP3 ADD DUP1 SLOAD PUSH2 0xA97 SWAP1 PUSH2 0x1392 JUMP JUMPDEST DUP1 PUSH1 0x1F ADD PUSH1 0x20 DUP1 SWAP2 DIV MUL PUSH1 0x20 ADD PUSH1 0x40 MLOAD SWAP1 DUP2 ADD PUSH1 0x40 MSTORE DUP1 SWAP3 SWAP2 SWAP1 DUP2 DUP2 MSTORE PUSH1 0x20 ADD DUP3 DUP1 SLOAD PUSH2 0xAC3 SWAP1 PUSH2 0x1392 JUMP JUMPDEST DUP1 ISZERO PUSH2 0xB10 JUMPI DUP1 PUSH1 0x1F LT PUSH2 0xAE5 JUMPI PUSH2 0x100 DUP1 DUP4 SLOAD DIV MUL DUP4 MSTORE SWAP2 PUSH1 0x20 ADD SWAP2 PUSH2 0xB10 JUMP JUMPDEST DUP3 ADD SWAP2 SWAP1 PUSH1 0x0 MSTORE PUSH1 0x20 PUSH1 0x0 KECCAK256 SWAP1 JUMPDEST DUP2 SLOAD DUP2 MSTORE SWAP1 PUSH1 0x1 ADD SWAP1 PUSH1 0x20 ADD DUP1 DUP4 GT PUSH2 0xAF3 JUMPI DUP3 SWAP1 SUB PUSH1 0x1F AND DUP3 ADD SWAP2 JUMPDEST POP POP POP SWAP2 DUP4 MSTORE POP POP PUSH1 0x4 DUP3 ADD SLOAD PUSH1 0x20 DUP3 ADD MSTORE PUSH1 0x5 SWAP1 SWAP2 ADD SLOAD PUSH1 0x1 PUSH1 0x1 PUSH1 0xA0 SHL SUB DUP2 AND PUSH1 0x40 DUP4 ADD MSTORE PUSH1 0x1 PUSH1 0xA0 SHL SWAP1 DIV PUSH1 0xFF AND ISZERO ISZERO PUSH1 0x60 SWAP1 SWAP2 ADD MSTORE SWAP3 SWAP2 POP POP JUMP JUMPDEST PUSH1 0x2 PUSH1 0x20 MSTORE PUSH1 0x0 SWAP1 DUP2 MSTORE PUSH1 0x40 SWAP1 KECCAK256 DUP1 SLOAD DUP2 SWAP1 PUSH2 0xB6A SWAP1 PUSH2 0x1392 JUMP JUMPDEST DUP1 PUSH1 0x1F ADD PUSH1 0x20 DUP1 SWAP2 DIV MUL PUSH1 0x20 ADD PUSH1 0x40 MLOAD SWAP1 DUP2 ADD PUSH1 0x40 MSTORE DUP1 SWAP3 SWAP2 SWAP1 DUP2 DUP2 MSTORE PUSH1 0x20 ADD DUP3 DUP1 SLOAD PUSH2 0xB96 SWAP1 PUSH2 0x1392 JUMP JUMPDEST DUP1 ISZERO PUSH2 0xBE3 JUMPI DUP1 PUSH1 0x1F LT PUSH2 0xBB8 JUMPI PUSH2 0x100 DUP1 DUP4 SLOAD DIV MUL DUP4 MSTORE SWAP2 PUSH1 0x20 ADD SWAP2 PUSH2 0xBE3 JUMP JUMPDEST DUP3 ADD SWAP2 SWAP1 PUSH1 0x0 MSTORE PUSH1 0x20 PUSH1 0x0 KECCAK256 SWAP1 JUMPDEST DUP2 SLOAD DUP2 MSTORE SWAP1 PUSH1 0x1 ADD SWAP1 PUSH1 0x20 ADD DUP1 DUP4 GT PUSH2 0xBC6 JUMPI DUP3 SWAP1 SUB PUSH1 0x1F AND DUP3 ADD SWAP2 JUMPDEST POP POP POP PUSH1 0x1 SWAP1 SWAP4 ADD SLOAD SWAP2 SWAP3 POP POP PUSH1 0x1 PUSH1 0x1 PUSH1 0xA0 SHL SUB DUP2 AND SWAP1 PUSH1 0xFF PUSH1 0x1 PUSH1 0xA0 SHL SWAP1 SWAP2 DIV AND DUP4 JUMP JUMPDEST PUSH2 0xC11 PUSH2 0xF2D JUMP JUMPDEST PUSH1 0x1 PUSH1 0x1 PUSH1 0xA0 SHL SUB DUP2 AND PUSH1 0x0 SWAP1 DUP2 MSTORE PUSH1 0x2 PUSH1 0x20 MSTORE PUSH1 0x40 SWAP1 KECCAK256 PUSH1 0x1 ADD SLOAD PUSH1 0x1 PUSH1 0xA0 SHL SWAP1 DIV PUSH1 0xFF AND PUSH2 0xC83 JUMPI PUSH1 0x40 MLOAD PUSH3 0x461BCD PUSH1 0xE5 SHL DUP2 MSTORE PUSH1 0x20 PUSH1 0x4 DUP3 ADD MSTORE PUSH1 0x19 PUSH1 0x24 DUP3 ADD MSTORE PUSH32 0x496E737469747574696F6E206973206E6F742061637469766500000000000000 PUSH1 0x44 DUP3 ADD MSTORE PUSH1 0x64 ADD PUSH2 0x280 JUMP JUMPDEST PUSH1 0x1 PUSH1 0x1 PUSH1 0xA0 SHL SUB DUP2 AND PUSH1 0x0 DUP2 DUP2 MSTORE PUSH1 0x2 PUSH1 0x20 MSTORE PUSH1 0x40 DUP1 DUP3 KECCAK256 PUSH1 0x1 ADD DUP1 SLOAD PUSH1 0xFF PUSH1 0xA0 SHL NOT AND SWAP1 SSTORE MLOAD PUSH32 0x805426965BF84411D1252C51430C8A578C088F2EE694E93AC6AC88104FB1DAE4 SWAP2 SWAP1 LOG2 POP JUMP JUMPDEST PUSH1 0x3 PUSH1 0x20 MSTORE PUSH1 0x0 SWAP1 DUP2 MSTORE PUSH1 0x40 SWAP1 KECCAK256 DUP1 SLOAD PUSH1 0x1 DUP3 ADD DUP1 SLOAD SWAP2 SWAP3 SWAP2 PUSH2 0xCF4 SWAP1 PUSH2 0x1392 JUMP JUMPDEST DUP1 PUSH1 0x1F ADD PUSH1 0x20 DUP1 SWAP2 DIV MUL PUSH1 0x20 ADD PUSH1 0x40 MLOAD SWAP1 DUP2 ADD PUSH1 0x40 MSTORE DUP1 SWAP3 SWAP2 SWAP1 DUP2 DUP2 MSTORE PUSH1 0x20 ADD DUP3 DUP1 SLOAD PUSH2 0xD20 SWAP1 PUSH2 0x1392 JUMP JUMPDEST DUP1 ISZERO PUSH2 0xD6D JUMPI DUP1 PUSH1 0x1F LT PUSH2 0xD42 JUMPI PUSH2 0x100 DUP1 DUP4 SLOAD DIV MUL DUP4 MSTORE SWAP2 PUSH1 0x20 ADD SWAP2 PUSH2 0xD6D JUMP JUMPDEST DUP3 ADD SWAP2 SWAP1 PUSH1 0x0 MSTORE PUSH1 0x20 PUSH1 0x0 KECCAK256 SWAP1 JUMPDEST DUP2 SLOAD DUP2 MSTORE SWAP1 PUSH1 0x1 ADD SWAP1 PUSH1 0x20 ADD DUP1 DUP4 GT PUSH2 0xD50 JUMPI DUP3 SWAP1 SUB PUSH1 0x1F AND DUP3 ADD SWAP2 JUMPDEST POP POP POP POP POP SWAP1 DUP1 PUSH1 0x2 ADD DUP1 SLOAD PUSH2 0xD82 SWAP1 PUSH2 0x1392 JUMP JUMPDEST DUP1 PUSH1 0x1F ADD PUSH1 0x20 DUP1 SWAP2 DIV MUL PUSH1 0x20 ADD PUSH1 0x40 MLOAD SWAP1 DUP2 ADD PUSH1 0x40 MSTORE DUP1 SWAP3 SWAP2 SWAP1 DUP2 DUP2 MSTORE PUSH1 0x20 ADD DUP3 DUP1 SLOAD PUSH2 0xDAE SWAP1 PUSH2 0x1392 JUMP JUMPDEST DUP1 ISZERO PUSH2 0xDFB JUMPI DUP1 PUSH1 0x1F LT PUSH2 0xDD0 JUMPI PUSH2 0x100 DUP1 DUP4 SLOAD DIV MUL DUP4 MSTORE SWAP2 PUSH1 0x20 ADD SWAP2 PUSH2 0xDFB JUMP JUMPDEST DUP3 ADD SWAP2 SWAP1 PUSH1 0x0 MSTORE PUSH1 0x20 PUSH1 0x0 KECCAK256 SWAP1 JUMPDEST DUP2 SLOAD DUP2 MSTORE SWAP1 PUSH1 0x1 ADD SWAP1 PUSH1 0x20 ADD DUP1 DUP4 GT PUSH2 0xDDE JUMPI DUP3 SWAP1 SUB PUSH1 0x1F AND DUP3 ADD SWAP2 JUMPDEST POP POP POP POP POP SWAP1 DUP1 PUSH1 0x3 ADD DUP1 SLOAD PUSH2 0xE10 SWAP1 PUSH2 0x1392 JUMP JUMPDEST DUP1 PUSH1 0x1F ADD PUSH1 0x20 DUP1 SWAP2 DIV MUL PUSH1 0x20 ADD PUSH1 0x40 MLOAD SWAP1 DUP2 ADD PUSH1 0x40 MSTORE DUP1 SWAP3 SWAP2 SWAP1 DUP2 DUP2 MSTORE PUSH1 0x20 ADD DUP3 DUP1 SLOAD PUSH2 0xE3C SWAP1 PUSH2 0x1392 JUMP JUMPDEST DUP1 ISZERO PUSH2 0xE89 JUMPI DUP1 PUSH1 0x1F LT PUSH2 0xE5E JUMPI PUSH2 0x100 DUP1 DUP4 SLOAD DIV MUL DUP4 MSTORE SWAP2 PUSH1 0x20 ADD SWAP2 PUSH2 0xE89 JUMP JUMPDEST DUP3 ADD SWAP2 SWAP1 PUSH1 0x0 MSTORE PUSH1 0x20 PUSH1 0x0 KECCAK256 SWAP1 JUMPDEST DUP2 SLOAD DUP2 MSTORE SWAP1 PUSH1 0x1 ADD SWAP1 PUSH1 0x20 ADD DUP1 DUP4 GT PUSH2 0xE6C JUMPI DUP3 SWAP1 SUB PUSH1 0x1F AND DUP3 ADD SWAP2 JUMPDEST POP POP POP POP PUSH1 0x4 DUP4 ADD SLOAD PUSH1 0x5 SWAP1 SWAP4 ADD SLOAD SWAP2 SWAP3 SWAP2 PUSH1 0x1 PUSH1 0x1 PUSH1 0xA0 SHL SUB DUP2 AND SWAP2 POP PUSH1 0x1 PUSH1 0xA0 SHL SWAP1 DIV PUSH1 0xFF AND DUP8 JUMP JUMPDEST PUSH2 0xEBC PUSH2 0xF2D JUMP JUMPDEST PUSH1 0x1 PUSH1 0x1 PUSH1 0xA0 SHL SUB DUP2 AND PUSH2 0xF21 JUMPI PUSH1 0x40 MLOAD PUSH3 0x461BCD PUSH1 0xE5 SHL DUP2 MSTORE PUSH1 0x20 PUSH1 0x4 DUP3 ADD MSTORE PUSH1 0x26 PUSH1 0x24 DUP3 ADD MSTORE PUSH32 0x4F776E61626C653A206E6577206F776E657220697320746865207A65726F2061 PUSH1 0x44 DUP3 ADD MSTORE PUSH6 0x646472657373 PUSH1 0xD0 SHL PUSH1 0x64 DUP3 ADD MSTORE PUSH1 0x84 ADD PUSH2 0x280 JUMP JUMPDEST PUSH2 0xF2A DUP2 PUSH2 0xF87 JUMP JUMPDEST POP JUMP JUMPDEST PUSH1 0x0 SLOAD PUSH1 0x1 PUSH1 0x1 PUSH1 0xA0 SHL SUB AND CALLER EQ PUSH2 0x473 JUMPI PUSH1 0x40 MLOAD PUSH3 0x461BCD PUSH1 0xE5 SHL DUP2 MSTORE PUSH1 0x20 PUSH1 0x4 DUP3 ADD DUP2 SWAP1 MSTORE PUSH1 0x24 DUP3 ADD MSTORE PUSH32 0x4F776E61626C653A2063616C6C6572206973206E6F7420746865206F776E6572 PUSH1 0x44 DUP3 ADD MSTORE PUSH1 0x64 ADD PUSH2 0x280 JUMP JUMPDEST PUSH1 0x0 DUP1 SLOAD PUSH1 0x1 PUSH1 0x1 PUSH1 0xA0 SHL SUB DUP4 DUP2 AND PUSH1 0x1 PUSH1 0x1 PUSH1 0xA0 SHL SUB NOT DUP4 AND DUP2 OR DUP5 SSTORE PUSH1 0x40 MLOAD SWAP2 SWAP1 SWAP3 AND SWAP3 DUP4 SWAP2 PUSH32 0x8BE0079C531659141344CD1FD0A4F28419497F9722A3DAAFE3B4186F6B6457E0 SWAP2 SWAP1 LOG3 POP POP JUMP JUMPDEST DUP1 CALLDATALOAD PUSH1 0x1 PUSH1 0x1 PUSH1 0xA0 SHL SUB DUP2 AND DUP2 EQ PUSH2 0xFEE JUMPI PUSH1 0x0 DUP1 REVERT JUMPDEST SWAP2 SWAP1 POP JUMP JUMPDEST PUSH4 0x4E487B71 PUSH1 0xE0 SHL PUSH1 0x0 MSTORE PUSH1 0x41 PUSH1 0x4 MSTORE PUSH1 0x24 PUSH1 0x0 REVERT JUMPDEST PUSH1 0x0 DUP3 PUSH1 0x1F DUP4 ADD SLT PUSH2 0x101A JUMPI PUSH1 0x0 DUP1 REVERT JUMPDEST DUP2 CALLDATALOAD PUSH8 0xFFFFFFFFFFFFFFFF DUP1 DUP3 GT ISZERO PUSH2 0x1035 JUMPI PUSH2 0x1035 PUSH2 0xFF3 JUMP JUMPDEST PUSH1 0x40 MLOAD PUSH1 0x1F DUP4 ADD PUSH1 0x1F NOT SWAP1 DUP2 AND PUSH1 0x3F ADD AND DUP2 ADD SWAP1 DUP3 DUP3 GT DUP2 DUP4 LT OR ISZERO PUSH2 0x105D JUMPI PUSH2 0x105D PUSH2 0xFF3 JUMP JUMPDEST DUP2 PUSH1 0x40 MSTORE DUP4 DUP2 MSTORE DUP7 PUSH1 0x20 DUP6 DUP9 ADD ADD GT ISZERO PUSH2 0x1076 JUMPI PUSH1 0x0 DUP1 REVERT JUMPDEST DUP4 PUSH1 0x20 DUP8 ADD PUSH1 0x20 DUP4 ADD CALLDATACOPY PUSH1 0x0 PUSH1 0x20 DUP6 DUP4 ADD ADD MSTORE DUP1 SWAP5 POP POP POP POP POP SWAP3 SWAP2 POP POP JUMP JUMPDEST PUSH1 0x0 DUP1 PUSH1 0x40 DUP4 DUP6 SUB SLT ISZERO PUSH2 0x10A9 JUMPI PUSH1 0x0 DUP1 REVERT JUMPDEST PUSH2 0x10B2 DUP4 PUSH2 0xFD7 JUMP JUMPDEST SWAP2 POP PUSH1 0x20 DUP4 ADD CALLDATALOAD PUSH8 0xFFFFFFFFFFFFFFFF DUP2 GT ISZERO PUSH2 0x10CE JUMPI PUSH1 0x0 DUP1 REVERT JUMPDEST PUSH2 0x10DA DUP6 DUP3 DUP7 ADD PUSH2 0x1009 JUMP JUMPDEST SWAP2 POP POP SWAP3 POP SWAP3 SWAP1 POP JUMP JUMPDEST PUSH1 0x0 PUSH1 0x20 DUP3 DUP5 SUB SLT ISZERO PUSH2 0x10F6 JUMPI PUSH1 0x0 DUP1 REVERT JUMPDEST POP CALLDATALOAD SWAP2 SWAP1 POP JUMP JUMPDEST PUSH1 0x0 DUP1 PUSH1 0x40 DUP4 DUP6 SUB SLT ISZERO PUSH2 0x1110 JUMPI PUSH1 0x0 DUP1 REVERT JUMPDEST DUP3 CALLDATALOAD SWAP2 POP PUSH1 0x20 DUP4 ADD CALLDATALOAD PUSH8 0xFFFFFFFFFFFFFFFF DUP2 GT ISZERO PUSH2 0x10CE JUMPI PUSH1 0x0 DUP1 REVERT JUMPDEST PUSH1 0x0 DUP1 PUSH1 0x0 PUSH1 0x60 DUP5 DUP7 SUB SLT ISZERO PUSH2 0x1143 JUMPI PUSH1 0x0 DUP1 REVERT JUMPDEST DUP4 CALLDATALOAD PUSH8 0xFFFFFFFFFFFFFFFF DUP1 DUP3 GT ISZERO PUSH2 0x115B JUMPI PUSH1 0x0 DUP1 REVERT JUMPDEST PUSH2 0x1167 DUP8 DUP4 DUP9 ADD PUSH2 0x1009 JUMP JUMPDEST SWAP5 POP PUSH1 0x20 DUP7 ADD CALLDATALOAD SWAP2 POP DUP1 DUP3 GT ISZERO PUSH2 0x117D JUMPI PUSH1 0x0 DUP1 REVERT JUMPDEST PUSH2 0x1189 DUP8 DUP4 DUP9 ADD PUSH2 0x1009 JUMP JUMPDEST SWAP4 POP PUSH1 0x40 DUP7 ADD CALLDATALOAD SWAP2 POP DUP1 DUP3 GT ISZERO PUSH2 0x119F JUMPI PUSH1 0x0 DUP1 REVERT JUMPDEST POP PUSH2 0x11AC DUP7 DUP3 DUP8 ADD PUSH2 0x1009 JUMP JUMPDEST SWAP2 POP POP SWAP3 POP SWAP3 POP SWAP3 JUMP JUMPDEST PUSH1 0x0 JUMPDEST DUP4 DUP2 LT ISZERO PUSH2 0x11D1 JUMPI DUP2 DUP2 ADD MLOAD DUP4 DUP3 ADD MSTORE PUSH1 0x20 ADD PUSH2 0x11B9 JUMP JUMPDEST POP POP PUSH1 0x0 SWAP2 ADD MSTORE JUMP JUMPDEST PUSH1 0x0 DUP2 MLOAD DUP1 DUP5 MSTORE PUSH2 0x11F2 DUP2 PUSH1 0x20 DUP7 ADD PUSH1 0x20 DUP7 ADD PUSH2 0x11B6 JUMP JUMPDEST PUSH1 0x1F ADD PUSH1 0x1F NOT AND SWAP3 SWAP1 SWAP3 ADD PUSH1 0x20 ADD SWAP3 SWAP2 POP POP JUMP JUMPDEST PUSH1 0x20 DUP2 MSTORE DUP2 MLOAD PUSH1 0x20 DUP3 ADD MSTORE PUSH1 0x0 PUSH1 0x20 DUP4 ADD MLOAD PUSH1 0xE0 PUSH1 0x40 DUP5 ADD MSTORE PUSH2 0x122D PUSH2 0x100 DUP5 ADD DUP3 PUSH2 0x11DA JUMP JUMPDEST SWAP1 POP PUSH1 0x40 DUP5 ADD MLOAD PUSH1 0x1F NOT DUP1 DUP6 DUP5 SUB ADD PUSH1 0x60 DUP7 ADD MSTORE PUSH2 0x124B DUP4 DUP4 PUSH2 0x11DA JUMP JUMPDEST SWAP3 POP PUSH1 0x60 DUP7 ADD MLOAD SWAP2 POP DUP1 DUP6 DUP5 SUB ADD PUSH1 0x80 DUP7 ADD MSTORE POP PUSH2 0x1269 DUP3 DUP3 PUSH2 0x11DA JUMP JUMPDEST SWAP2 POP POP PUSH1 0x80 DUP5 ADD MLOAD PUSH1 0xA0 DUP5 ADD MSTORE PUSH1 0x1 DUP1 PUSH1 0xA0 SHL SUB PUSH1 0xA0 DUP6 ADD MLOAD AND PUSH1 0xC0 DUP5 ADD MSTORE PUSH1 0xC0 DUP5 ADD MLOAD ISZERO ISZERO PUSH1 0xE0 DUP5 ADD MSTORE DUP1 SWAP2 POP POP SWAP3 SWAP2 POP POP JUMP JUMPDEST PUSH1 0x0 PUSH1 0x20 DUP3 DUP5 SUB SLT ISZERO PUSH2 0x12B0 JUMPI PUSH1 0x0 DUP1 REVERT JUMPDEST PUSH2 0x12B9 DUP3 PUSH2 0xFD7 JUMP JUMPDEST SWAP4 SWAP3 POP POP POP JUMP JUMPDEST PUSH1 0x60 DUP2 MSTORE PUSH1 0x0 PUSH2 0x12D3 PUSH1 0x60 DUP4 ADD DUP7 PUSH2 0x11DA JUMP JUMPDEST PUSH1 0x1 PUSH1 0x1 PUSH1 0xA0 SHL SUB SWAP5 SWAP1 SWAP5 AND PUSH1 0x20 DUP4 ADD MSTORE POP SWAP1 ISZERO ISZERO PUSH1 0x40 SWAP1 SWAP2 ADD MSTORE SWAP2 SWAP1 POP JUMP JUMPDEST PUSH1 0x0 PUSH1 0x20 DUP3 DUP5 SUB SLT ISZERO PUSH2 0x1305 JUMPI PUSH1 0x0 DUP1 REVERT JUMPDEST DUP2 CALLDATALOAD PUSH8 0xFFFFFFFFFFFFFFFF DUP2 GT ISZERO PUSH2 0x131C JUMPI PUSH1 0x0 DUP1 REVERT JUMPDEST PUSH2 0x6A3 DUP5 DUP3 DUP6 ADD PUSH2 0x1009 JUMP JUMPDEST DUP8 DUP2 MSTORE PUSH1 0xE0 PUSH1 0x20 DUP3 ADD MSTORE PUSH1 0x0 PUSH2 0x1341 PUSH1 0xE0 DUP4 ADD DUP10 PUSH2 0x11DA JUMP JUMPDEST DUP3 DUP2 SUB PUSH1 0x40 DUP5 ADD MSTORE PUSH2 0x1353 DUP2 DUP10 PUSH2 0x11DA JUMP JUMPDEST SWAP1 POP DUP3 DUP2 SUB PUSH1 0x60 DUP5 ADD MSTORE PUSH2 0x1367 DUP2 DUP9 PUSH2 0x11DA JUMP JUMPDEST PUSH1 0x80 DUP5 ADD SWAP7 SWAP1 SWAP7 MSTORE POP POP PUSH1 0x1 PUSH1 0x1 PUSH1 0xA0 SHL SUB SWAP3 SWAP1 SWAP3 AND PUSH1 0xA0 DUP4 ADD MSTORE ISZERO ISZERO PUSH1 0xC0 SWAP1 SWAP2 ADD MSTORE SWAP5 SWAP4 POP POP POP POP JUMP JUMPDEST PUSH1 0x1 DUP2 DUP2 SHR SWAP1 DUP3 AND DUP1 PUSH2 0x13A6 JUMPI PUSH1 0x7F DUP3 AND SWAP2 POP JUMPDEST PUSH1 0x20 DUP3 LT DUP2 SUB PUSH2 0x13C6 JUMPI PUSH4 0x4E487B71 PUSH1 0xE0 SHL PUSH1 0x0 MSTORE PUSH1 0x22 PUSH1 0x4 MSTORE PUSH1 0x24 PUSH1 0x0 REVERT JUMPDEST POP SWAP2 SWAP1 POP JUMP JUMPDEST PUSH1 0x1F DUP3 GT ISZERO PUSH2 0x1416 JUMPI PUSH1 0x0 DUP2 DUP2 MSTORE PUSH1 0x20 DUP2 KECCAK256 PUSH1 0x1F DUP6 ADD PUSH1 0x5 SHR DUP2 ADD PUSH1 0x20 DUP7 LT ISZERO PUSH2 0x13F3 JUMPI POP DUP1 JUMPDEST PUSH1 0x1F DUP6 ADD PUSH1 0x5 SHR DUP3 ADD SWAP2 POP JUMPDEST DUP2 DUP2 LT ISZERO PUSH2 0x1412 JUMPI DUP3 DUP2 SSTORE PUSH1 0x1 ADD PUSH2 0x13FF JUMP JUMPDEST POP POP POP JUMPDEST POP POP POP JUMP JUMPDEST DUP2 MLOAD PUSH8 0xFFFFFFFFFFFFFFFF DUP2 GT ISZERO PUSH2 0x1435 JUMPI PUSH2 0x1435 PUSH2 0xFF3 JUMP JUMPDEST PUSH2 0x1449 DUP2 PUSH2 0x1443 DUP5 SLOAD PUSH2 0x1392 JUMP JUMPDEST DUP5 PUSH2 0x13CC JUMP JUMPDEST PUSH1 0x20 DUP1 PUSH1 0x1F DUP4 GT PUSH1 0x1 DUP2 EQ PUSH2 0x147E JUMPI PUSH1 0x0 DUP5 ISZERO PUSH2 0x1466 JUMPI POP DUP6 DUP4 ADD MLOAD JUMPDEST PUSH1 0x0 NOT PUSH1 0x3 DUP7 SWAP1 SHL SHR NOT AND PUSH1 0x1 DUP6 SWAP1 SHL OR DUP6 SSTORE PUSH2 0x1412 JUMP JUMPDEST PUSH1 0x0 DUP6 DUP2 MSTORE PUSH1 0x20 DUP2 KECCAK256 PUSH1 0x1F NOT DUP7 AND SWAP2 JUMPDEST DUP3 DUP2 LT ISZERO PUSH2 0x14AD JUMPI DUP9 DUP7 ADD MLOAD DUP3 SSTORE SWAP5 DUP5 ADD SWAP5 PUSH1 0x1 SWAP1 SWAP2 ADD SWAP1 DUP5 ADD PUSH2 0x148E JUMP JUMPDEST POP DUP6 DUP3 LT ISZERO PUSH2 0x14CB JUMPI DUP8 DUP6 ADD MLOAD PUSH1 0x0 NOT PUSH1 0x3 DUP9 SWAP1 SHL PUSH1 0xF8 AND SHR NOT AND DUP2 SSTORE JUMPDEST POP POP POP POP POP PUSH1 0x1 SWAP1 DUP2 SHL ADD SWAP1 SSTORE POP JUMP JUMPDEST PUSH1 0x20 DUP2 MSTORE PUSH1 0x0 PUSH2 0x12B9 PUSH1 0x20 DUP4 ADD DUP5 PUSH2 0x11DA JUMP JUMPDEST PUSH1 0x0 DUP3 MLOAD PUSH2 0x1500 DUP2 DUP5 PUSH1 0x20 DUP8 ADD PUSH2 0x11B6 JUMP JUMPDEST SWAP2 SWAP1 SWAP2 ADD SWAP3 SWAP2 POP POP JUMP INVALID LOG2 PUSH5 0x6970667358 0x22 SLT KECCAK256 0xBA 0xCB INVALID MSIZE 0xC7 SSTORE DUP14 DUP10 SMOD 0x4E 0xC6 DELEGATECALL 0xAB LOG3 0xCB 0xC1 0x49 ADDMOD PUSH0 MSTORE8 CALLDATASIZE DUP7 PUSH26 0x7401FFA0E7187BE94564736F6C63430008140033000000000000 "
        },
        "methodIdentifiers": {
          "addInstitution(address,string)": "17e1bfb7",
          "credentials(uint256)": "e0574e3f",
          "deactivateInstitution(address)": "c6bd734e",
          "getCredential(uint256)": "8dd18d2d",
          "institutions(address)": "b2d9767f",
          "issueCredential(string,string,string)": "8b1afa80",
          "owner()": "8da5cb5b",
          "renounceOwnership()": "715018a6",
          "revokeCredential(uint256)": "1b87278d",
          "transferOwnership(address)": "f2fde38b",
          "usedHashes(string)": "bd1f5f31",
          "verifyCredential(uint256,string)": "896da1f7"
        }
      }
    }
  }
}